{
  "contractName": "FourInARow",
  "abi": [
    {
      "constant": true,
      "inputs": [],
      "name": "whoPlays",
      "outputs": [
        {
          "name": "p1",
          "type": "address"
        },
        {
          "name": "p2",
          "type": "address"
        }
      ],
      "payable": false,
      "type": "function"
    },
    {
      "constant": false,
      "inputs": [
        {
          "name": "row",
          "type": "uint8"
        },
        {
          "name": "col",
          "type": "uint8"
        }
      ],
      "name": "makeMove",
      "outputs": [
        {
          "name": "isValid",
          "type": "bool"
        }
      ],
      "payable": false,
      "type": "function"
    },
    {
      "constant": true,
      "inputs": [
        {
          "name": "row",
          "type": "uint8"
        },
        {
          "name": "col",
          "type": "uint8"
        }
      ],
      "name": "currentGrid",
      "outputs": [
        {
          "name": "grid",
          "type": "uint8[7][6]"
        },
        {
          "name": "amount",
          "type": "uint256"
        }
      ],
      "payable": false,
      "type": "function"
    },
    {
      "inputs": [],
      "payable": false,
      "type": "function",
      "constant": true,
      "name": "maxDeposited",
      "outputs": [
        {
          "name": "player",
          "type": "address"
        },
        {
          "name": "amount",
          "type": "uint256"
        }
      ]
    },
    {
      "inputs": [],
      "payable": true,
      "type": "function",
      "constant": false,
      "name": "startGame",
      "outputs": [
        {
          "name": "player",
          "type": "address"
        },
        {
          "name": "amount",
          "type": "uint256"
        }
      ]
    },
    {
      "inputs": [],
      "payable": true,
      "type": "constructor",
      "constant": false,
      "name": "startGame",
      "outputs": []
    },
    {
      "anonymous": false,
      "inputs": [
        {
          "indexed": false,
          "name": "",
          "type": "address"
        },
        {
          "indexed": false,
          "name": "row",
          "type": "uint8"
        },
        {
          "indexed": false,
          "name": "col",
          "type": "uint8"
        }
      ],
      "name": "MoveMade",
      "type": "fallback",
      "payable": true
    },
    {
      "anonymous": false,
      "inputs": [
        {
          "indexed": false,
          "name": "",
          "type": "address"
        },
        {
          "indexed": false,
          "name": "row",
          "type": "uint8"
        },
        {
          "indexed": false,
          "name": "col",
          "type": "uint8"
        }
      ],
      "name": "MoveMade",
      "type": "event"
    }
  ],
  "bytecode": "0x60606040525b60008054600160a060020a033316600160a060020a0319918216178255600980549091169055600a8054600160a860020a031916905534111561005957610059333464010000000061019961006082021704565b5b5b610119565b600a54600160a060020a0316158061008e5750600160a060020a038216600090815260016020526040812054115b151561009957600080fd5b600160a060020a0380831660009081526001602052604090208054830190556009541615156100e25760098054600160a060020a031916600160a060020a038416179055610113565b600954600160a060020a0383811691161461011357600a8054600160a060020a031916600160a060020a0384161790555b5b5b5050565b610737806101286000396000f3006060604052361561006a5763ffffffff7c01000000000000000000000000000000000000000000000000000000006000350416632bf137ef81146100825780635e24b0f1146100b957806374be298d146100ec578063d21d20541461015a578063d65ab5f21461018f575b5b600034111561007e5761007e3334610199565b5b5b005b341561008d57600080fd5b61009561026c565b604051600160a060020a039283168152911660208201526040908101905180910390f35b34156100c457600080fd5b6100d860ff60043581169060243516610284565b604051901515815260200160405180910390f35b34156100f757600080fd5b6100ff610394565b6040516000826006835b8184101561014a578284602002015160e080838360005b838110156101395780820151818401525b602001610120565b505050509050019260010192610109565b9250505091505060405180910390f35b341561016557600080fd5b61016d610425565b604051600160a060020a03909216825260208201526040908101905180910390f35b61007e610471565b005b600a54600160a060020a031615806101c75750600160a060020a038216600090815260016020526040812054115b15156101d257600080fd5b600160a060020a038083166000908152600160205260409020805483019055600954161515610228576009805473ffffffffffffffffffffffffffffffffffffffff1916600160a060020a038416179055610266565b600954600160a060020a0383811691161461026657600a805473ffffffffffffffffffffffffffffffffffffffff1916600160a060020a0384161790555b5b5b5050565b600954600a54600160a060020a0391821691165b9091565b6000808061029133610572565b915061029c846105bb565b905060008260ff161180156102d25750600a5460ff83811675010000000000000000000000000000000000000000009092041614155b80156102e1575060008160ff16115b156102f4576102f18585846105fa565b92505b821561038b57600a805475ff0000000000000000000000000000000000000000001916750100000000000000000000000000000000000000000060ff8516021790557f10ac166a969b6ae9b140c9d6b88c6c4e565e4fc22f858bf92f1542535f0f161a338686604051600160a060020a03909316835260ff9182166020840152166040808301919091526060909101905180910390a15b5b505092915050565b61039c6106b5565b6003600660c060405190810160405291906000835b8282101561041b5783820160005b50600760e0604051908101604052919060e08301826000855b825461010083900a900460ff168152602060019283018181049485019490930390920291018084116103d85790505b5050505050815260200190600101906103b1565b5050505090505b90565b600954600160a060020a0390811660008181526001602052604080822054600a5490941682529020549091908181111561046b57600a54600160a060020a031692509050805b5b509091565b600080600080341115610488576104883334610199565b5b600a54600160a060020a031615156104a057600080fd5b6104a8610425565b600954909450909250600160a060020a038084169116146104e357600954600160a060020a03166000908152600160205260409020546104ff565b600a54600160a060020a03166000908152600160205260409020545b90508281101561053757600160a060020a03821660009081526001602090815260408083208490556002909152902080548285030190555b600a805474ff00000000000000000000000000000000000000001916740100000000000000000000000000000000000000001790555b505050565b600954600090600160a060020a0383811691161415610593575060016105b6565b600a54600160a060020a03838116911614156105b1575060026105b6565b5b5060005b919050565b600060015b600660ff8216116105ef576105d58184610668565b60ff1615156105e6578091506105f4565b5b6001016105c0565b600091505b50919050565b60006106068484610668565b60ff1615905080156106605781600360ff6000198701166006811061062757fe5b0160005b5060ff6000198601166007811061063e57fe5b602091828204019190065b6101000a81548160ff021916908360ff1602179055505b5b9392505050565b6000600360ff6000198501166006811061067e57fe5b0160005b5060ff6000198401166007811061069557fe5b602091828204019190065b9054906101000a900460ff1690505b92915050565b6105406040519081016040526006815b6106cd6106e3565b8152602001906001900390816106c55790505090565b60e06040519081016040526007815b6000815260001990910190602001816106f257905050905600a165627a7a72305820fb1bb747cf2097ca58b36e2f52886650cd572175959a209b291b01dee71a5fd60029",
  "source": "pragma solidity ^0.4.11;\r\n\r\ncontract FourInARow {\r\n    \r\n    address _owner;\r\n\r\n    mapping (address => uint) _players;\r\n    mapping (address => uint) _playerRefunds;\r\n    uint8[7][6] _grid;\r\n    address _p1;\r\n    address _p2;\r\n\r\n    bool _started;\r\n    uint8 _lastMoveBy;\r\n    event MoveMade(address, uint8 row, uint8 col);\r\n\r\n    /* Constructor */\r\n    function FourInARow() public payable {\r\n        _owner = msg.sender;\r\n        _p1 = address(0);\r\n        _p2 = address(0);\r\n        _started = false;\r\n\r\n        if (msg.value > 0)\r\n            deposit(msg.sender, msg.value);\r\n    }\r\n\r\n    /* Fallback, can be used for joining/making deposit, can fail when already 2 players */\r\n    function () public payable {\r\n        if (msg.value > 0)\r\n            deposit(msg.sender, msg.value);\r\n    }\r\n\r\n    /* Joining is also possible by just calling deposit */\r\n    //function deposit() payable {\r\n    //    deposit(msg.sender, msg.value);\r\n    //}\r\n\r\n    /* Internal deposit-handling function */\r\n    function deposit(address player, uint amount) private {\r\n        require(_p2 == address(0) || _players[player] > 0); // New player possible or existing player depositing more\r\n        _players[player] += amount;\r\n\r\n        if (_p1 == address(0)) {\r\n            _p1 = player;\r\n        } else if (_p1 != player) {\r\n            _p2 = player;\r\n        } \r\n    }\r\n\r\n    /* Internal function for determining which player deposited most and how much */\r\n    function maxDeposited() constant returns (address player, uint amount) {\r\n        player = _p1;\r\n        amount = _players[_p1];\r\n\r\n        uint amountP2 = _players[_p2];\r\n        if (amountP2 > amount) {\r\n            player = _p2;\r\n            amount = amountP2; \r\n        }\r\n\r\n        return (player,amount);\r\n    }\r\n\r\n    /* Starts the game */\r\n    function startGame() payable public {\r\n        // Player can join by just calling startGame AND sending funds as well\r\n        if (msg.value > 0)\r\n            deposit(msg.sender, msg.value);\r\n        \r\n        require(_p2 != address(0)); // We must have two players!\r\n\r\n        uint amountMax;\r\n        address playerMax;\r\n        (playerMax, amountMax) = maxDeposited();\r\n\r\n        uint amountPlay = (playerMax == _p1) ? _players[_p2] : _players[_p1];\r\n\r\n        // Register refund if one of the players deposited more than the other\r\n        if (amountPlay < amountMax) {\r\n            _players[playerMax] = amountPlay; // Both same bet now\r\n            _playerRefunds[playerMax] += (amountMax - amountPlay); // += since this may have been invoked before\r\n            //assert(_players[playerMax] == (amountPlay + _playerRefunds[playerMax]));\r\n        }\r\n\r\n        _started = true;\r\n    }\r\n\r\n    function getPlayerNum(address player) private constant returns (uint8 num) {\r\n        if (player == _p1)\r\n            return 1;\r\n        else if (player == _p2)\r\n            return 2;\r\n        return 0;\r\n    }\r\n\r\n    function cellAt(uint8 row, uint8 col) private constant returns (uint8 num) {\r\n        return _grid[row-1][col-1];\r\n    }\r\n\r\n    function setCell(uint8 row, uint8 col, uint8 playerNum) private returns (bool isFree) {\r\n        isFree = (cellAt(row, col) == 0);\r\n        if (isFree)\r\n            _grid[row-1][col-1] = playerNum;\r\n        return isFree;\r\n    }\r\n\r\n    function getFirstEmptyRow(uint8 col) private constant returns (uint8 row) {\r\n        for (uint8 i = 1; i <= 6; i++) {\r\n            if (cellAt(i, col) == 0)\r\n                return i;\r\n        }\r\n        return 0;\r\n    }\r\n\r\n    function makeMove (uint8 row, uint8 col) public returns (bool isValid) {\r\n        isValid = false;\r\n\r\n        uint8 playerNum = getPlayerNum(msg.sender);\r\n        uint8 nextFreeRow = getFirstEmptyRow(col);\r\n\r\n        if (playerNum > 0 && playerNum != _lastMoveBy && nextFreeRow > 0) {\r\n            isValid = setCell(row, col, playerNum);\r\n        }\r\n\r\n        if (isValid) {\r\n            _lastMoveBy = playerNum;\r\n            MoveMade(msg.sender, row, col);\r\n        }\r\n\r\n        return isValid;\r\n    }\r\n\r\n    function whoPlays() constant returns (address p1, address p2) {\r\n        return (_p1, _p2);\r\n    }\r\n\r\n    function currentGrid() constant returns (uint8[7][6] grid) {\r\n        return _grid;\r\n    }\r\n}",
  "sourcePath": "/C/Data/Src/4inarow/contracts/FourInARow.sol",
  "schemaVersion": "1.0.0",
  "updatedAt": "2017-09-22T14:47:26.700Z"
}